:020000040800F2
:10000000C80600206901000871010008730100089A
:100010007501000877010008790100080000000060
:100020000000000000000000000000007B0100084C
:100030007D010008000000007F0100088101000828
:100040008301000883010008830100088301000880
:100050008301000883010008830100088301000870
:1000600000000000830100088301000883010008EC
:100070002502000883010008830100080000000039
:1000800083010008610300080000000083010008EC
:100090008301000883010008830100088301000830
:1000A0008301000883010008830100088301000820
:1000B00083010008000000000000000000000000B4
:1000C00083010008000000008301000800F002F82E
:1000D00000F03AF80AA090E8000C82448344AAF1A8
:1000E0000107DA4501D100F02FF8AFF2090EBAE8A6
:1000F0000F0013F0010F18BFFB1A43F0010318475C
:10010000FC1300001C140000103A24BF78C878C10A
:10011000FAD8520724BF30C830C144BF04680C600D
:10012000704700000023002400250026103A28BF55
:1001300078C1FBD8520728BF30C148BF0B60704759
:100140001FB51FBD10B510BD00F031F81146FFF707
:10015000F7FF00F04FFE00F04FF803B4FFF7F2FF97
:1001600003BC00F057F800000948804709480047E1
:10017000FEE7FEE7FEE7FEE7FEE7FEE7FEE7FEE757
:10018000FEE7FEE704480549054A064B70470000B4
:10019000F5020008CD000008C8000020C8060020B5
:1001A000C8020020C802002070477047704775469B
:1001B00000F02CF8AE4605006946534620F00700D3
:1001C000854618B020B5FFF7DDFFBDE820404FF0B1
:1001D00000064FF000074FF000084FF0000B21F031
:1001E0000701AC46ACE8C009ACE8C009ACE8C009FE
:1001F000ACE8C0098D46704710B50446AFF30080E7
:100200002046BDE81040FFF7A8BF00000048704737
:100210006400002001491820ABBEFEE72600020062
:100220007047000010B501F04BF90C4800F0AFF931
:100230000B49088008210B4800F0ECFC0A490870C3
:100240000A48006820F0100010300849086008468D
:10025000006820F020002030086010BD002401401C
:1002600004000020000400480600002008000020D0
:1002700001480088704700000400002010B54021AC
:100280004FF0904000F080FC10BD00000148007865
:10029000704700000600002010B50221014800F060
:1002A00073FC10BD0004004810B54FF400614FF01E
:1002B000904000F06BFC10BD10B54FF400614FF0A2
:1002C000904000F061FC10BD10B504214FF090404B
:1002D00000F05AFC10BD10B501214FF0904000F025
:1002E00053FC10BD10B50121014800F04DFC10BDBC
:1002F000000400481748006820F00100401C154920
:10030000086000BF13480068C0F340000028F9D01F
:100310001048406820F003000E49486000BF0D48B7
:100320004068C0F381000028F9D10A49486041F6CD
:100330001070C8620846006807490840054908600F
:100340004FF4801008634FF41F008860C80303490E
:100350000860704700100240FFFFF2FE08ED00E069
:1003600010B50D480078401C0B490870084600780D
:10037000082804DB00F0D2FD00200749087001F0D6
:10038000A7F80121054801F099F80448006920F018
:1003900001000249086110BD620000200010004009
:1003A0000B78426863F3082242604B78826863F3FB
:1003B000410282608B78826863F3CB228260CA78C4
:1003C000521EC36A62F31753C36270470021017063
:1003D000417081700121C1707047826861F3000231
:1003E00082607047012A03D143680B43436003E0F6
:1003F00012B943688B434360704710B5122964D229
:10040000DFE801F0090E13181D22272C31363B407E
:10041000454A4F54595E046963F30204046155E090
:10042000046963F3C504046150E0046963F388144C
:1004300004614BE0046963F34B24046146E0046902
:1004400063F30E34046141E0046963F3D134046161
:100450003CE0046963F39444046137E0046963F3A6
:100460005754046132E0046963F31A6404612DE0B7
:10047000046963F3DD64046128E0C46863F3020483
:10048000C46023E0C46863F3C504C4601EE0C468AC
:1004900063F38814C46019E0C46863F34B24C46038
:1004A00014E0C46863F30E34C4600FE0C46863F3FF
:1004B000D134C4600AE0C46863F39444C46005E0C6
:1004C000C46863F35754C46000E000BF00BF112A42
:1004D0005AD2DFE802F059090E13181D22272C31D9
:1004E000363B40454A4F5400446B61F30404446377
:1004F0004BE0446B61F34914446346E0446B61F3A1
:100500008E24446341E0446B61F3D33444633CE0A4
:10051000446B61F31854446337E0446B61F35D64EA
:10052000446332E0046B61F3040404632DE0046B64
:1005300061F34914046328E0046B61F38E240463BF
:1005400023E0046B61F3D33404631EE0046B61F3B6
:100550001854046319E0046B61F35D64046314E0F0
:10056000C46A61F30404C4620FE0C46A61F349140D
:10057000C4620AE0C46A61F38E24C46205E0C46AFE
:1005800061F3D334C46200E000BF00BF10BD014678
:10059000C86C80B2704707290ADD836823F00073B6
:1005A00003F100738360836861F35343836007E062
:1005B000836823F000738360836861F3534383602F
:1005C000836862F3145383607047000000B51E48CF
:1005D00000681E49884216D91D480088C0F3802053
:1005E00088B91B480088C0F3402060B918480078DB
:1005F000C0F3400038B100F053FD012015490870E8
:100600000020114908601048006810491B398842D1
:1006100018D90F480088C0F3003098B90C480088FA
:10062000C0F3C02070B90A480078C0F3400048B158
:1006300000F032FA0648006820F0807000F1807007
:100640000349086000BD00000C0000201B7512006B
:10065000080000203C00002000B505480068C0F3F9
:10066000806010B100F024F801E000F003F800BD54
:100670000800002000B50B480078002804DD094878
:100680000078401E0749087078200749086007482D
:10069000006820F0806000F180600449086000F08C
:1006A000A5FE00BD3D00002038000020080000200D
:1006B00000B50A480078002804DD08480078401E8C
:1006C000064908701E20064908600648006820F0A8
:1006D00080600449086000F089FE00BD3C000020F5
:1006E00038000020080000200648006820F00100C3
:1006F000044908600846006820F00200801C086079
:10070000704700000800002000B505480088C0F3CD
:10071000402010B100F0D2FC01E000F079F900BDFA
:10072000080000200349496860F30711014A51603D
:100730007047000000100240052827D2DFE800F0D3
:10074000030A11181F00134A126861F30002114BCB
:100750001A601CE00F4A126861F310420D4B1A60D8
:1007600015E00C4A126861F318620A4B1A600EE039
:10077000084A126A61F30002064B1A6207E0054A52
:10078000526A61F30002034B5A6200E000BF00BFEF
:1007900070470000001002400349096B60F3596183
:1007A000014A1163704700000010024000B5034683
:1007B0000120FFF7F1FF0348406D63F34920014931
:1007C000486500BD0010024010B501290DD10E4B47
:1007D00003EB1042126800F01F040123A3401A43E8
:1007E000094C04EB10431A600CE0074B03EB10427A
:1007F000126800F01F040123A3409A43024C04EB4B
:1008000010431A6010BD00000010024000B52648D9
:100810000078C0F3C00010B323480078C0F3800014
:10082000E8B921480078C0F34000C0B11E48006814
:10083000C0F3C04098B11C480088C0F3802070B954
:1008400019480088C0F3402048B917480068C0F331
:10085000006020B901201549087000F021FC124801
:100860000078C0F38000E8B10F480068C0F3C040D2
:10087000C0B10D480078C0F3C00098B90A4800889C
:10088000C0F3003070B908480088C0F3C02048B9F0
:1008900005480068C0F3006020B9022003490870D1
:1008A000FFF732FF00BD0000080000203C000020E0
:1008B00010B5FFF7F9FC08212A4800F0ABF92A49E6
:1008C0000870FFF7F9FC2948006820F0200020306C
:1008D0002649086008460078C0F3401000283FD041
:1008E000FFF7D4FC30B122480078401E40B22049C6
:1008F000087005E01E480078401C40B21C49087092
:100900001B4890F900000A280FDD0A2018490870DA
:100910001648006820F0080014490860084600687E
:1009200020F00400001D086014E0114890F9000058
:1009300010F10A0F0EDAF6200D4908700B48006816
:1009400020F008000830094908600846006820F0D7
:10095000040008600548006820F020000349086092
:1009600010BD000000040048060000200800002020
:100970006100002010B522480078C0F30010002864
:100980003DD040F6AE001F49088040F6C4101E4915
:100990000880FFF76DFC0446FFF78EFC19480088BD
:1009A000844206DA19480078401C40B217490870A2
:1009B00009E015480088844205DD14480078401E8F
:1009C00040B212490870114890F90000042804DD73
:1009D00000F0BCFC04200D4908700C4890F90000A0
:1009E00010F1040F04DAFFF77FFEFC2007490870BE
:1009F0000348006820F010000149086000BF10BDE6
:100A000008000020000000200200002060000020FC
:100A10001C480088C0F3C02098BB1A480088C0F367
:100A2000003070BB17480068C0F3C04048B3154899
:100A3000006820F4006000F5006012490860084674
:100A4000006820F4806008600846006820F40070A8
:100A500008600846006820F40050086008460068F6
:100A600020F4804000F5804008607A200649086044
:100A700078200649086001200549086000200549E2
:100A800008607047080000201400002010000020BB
:100A9000180000200C0000201B480088C0F3C02074
:100AA00080BB19480088C0F3003058BB1648006866
:100AB000C0F3C04030B31448006820F4006000F573
:100AC0000060114908600846006820F480600860F2
:100AD0000846006820F4007008600846006820F4AA
:100AE000005008600846006820F4804000F580400F
:100AF00008601B200549086019200549086001208D
:100B0000044908607047000008000020140000201D
:100B1000100000201800002019480088C0F3802031
:100B200058BB17480088C0F3402030BB1448006809
:100B3000C0F3C04008B31248006820F4007000F50C
:100B400000700F4908600846006820F48050086073
:100B50000846006820F4006008600846006820F439
:100B6000804008600846006820F4005000F50050FE
:100B70000860782003490860704700BFFCE7000068
:100B800008000020100000208162704781617047DA
:100B90000AB1816100E08162704770B50A460021A8
:100BA0001488A3B233E003F001046CB304684E0070
:100BB0000325B540AC43046094794D00AC40056812
:100BC0002C430460446801258D40AC434460446874
:100BD00015798D402C43446084684E000325B54050
:100BE000AC438460D4794D00AC4085682C4384606C
:100BF000C4684E000325B540AC43C46054794D0031
:100C0000AC40C5682C43C4605B104C1CA1B2002BE7
:100C1000C9DC70BD0246002013690B408B4200D036
:100C200000E0012070472DE9FC4707460C461546B9
:100C30001E46DDE90A89EA468DF807508DF8066000
:100C40008DF8048000948DF8059051463846FFF7E2
:100C5000A4FFBDE8FC8700001CB50020FFF7A6FD3F
:100C600001210020FFF768FD0120FFF795FD00201E
:100C7000FFF758FD01214048FFF7A6FD01213E483E
:100C8000401CFFF7A1FD01213C48FFF79DFD01211C
:100C90003B48FFF799FD00200090012302229103B9
:100CA00001904FF09040FFF7BEFF0020009001231D
:100CB0000222D10201904FF09040FFF7B4FF0020D4
:100CC000009001230222194601904FF09040FFF757
:100CD000AAFF0020009001230222114601904FF04C
:100CE0009040FFF7A0FF0020009003460222082159
:100CF00001902448FFF797FF012000210346024698
:100D0000CDE90010C1024FF09040FFF78CFF0020AA
:100D1000012103230222CDE9001020211948FFF709
:100D200082FF0020009001230222042101904FF055
:100D30009040FFF778FF00F087FB262225210C204A
:100D400000F04AF92046FFF741FB00206070214681
:100D50000D48FFF725FB01210B48FFF73EFB012261
:100D600020210948FFF73EFB072301220521064801
:100D7000FFF743FB1CBD0000110014000900180020
:100D800004001C00000400480024014010B518486D
:100D9000007800F0010204214FF09040FFF7F8FEC8
:100DA00013480088C0F3803202214FF09040FFF7D3
:100DB000EFFE0F480088C0F3403201214FF0904011
:100DC000FFF7E6FE0A480068C0F380524FF48051F6
:100DD0004FF09040FFF7DCFE05480068C0F300408C
:100DE00028B14FF400414FF09040FFF7CDFE10BD09
:100DF0000800002000F0CCFA13E000F061FBFFF7E0
:100E0000C5FF0848007800F0010040B9FFF750FD29
:100E1000FFF7FCFCFFF7AEFDFFF7D8FB01E0FFF7A3
:100E200073FCEAE7080000200C480078002805DD84
:100E30000A480078401E094908700DE0074800780C
:100E400050B90748006820F4003000F5003004492C
:100E500008601E200149087070470000290000202A
:100E60000800002010B50B48007800F0010080B9A0
:100E70000948007828B9FFF717FA012006490870D9
:100E800007E0012207210548FFF785FB0020024902
:100E9000087010BD08000020400000200024014020
:100EA00000B51B48006820F4000019490860084696
:100EB000007800F0010070B108460068C0F34040BF
:100EC00010B1FFF7C9FB22E01248007800281EDDB0
:100ED000FFF7EEFB1BE00E480078C0F34000B0B116
:100EE0000C480078002806DD0B480078002802DD59
:100EF000FFF7B2FB0BE007480078002801DDFFF7A1
:100F0000D7FB05480078002801DDFFF7B3FB00BDE3
:100F1000080000203C0000203D00002010B52948BA
:100F2000006828B127480068401E2649086001E093
:100F300000F074FA2448D0E90020244B0ACB511A5F
:100F400098410AD32048D0E900100A3140F100004E
:100F50001E4AC2E90010FFF785FF1B48D0E90010C8
:100F60001B4AD2E90032C91A90410AD31648D0E987
:100F70000020C83240F100001549C1E90020FFF708
:100F80008FFF1148D0E90010124AD2E90032C91A85
:100F900090410CD30C48D0E900304FF47A715918C5
:100FA00040F100000B4AC2E9001000F04BF906487E
:100FB000D0E90020521C40F100000349C1E90020A3
:100FC00010BD00003800002030000020500000203C
:100FD00048000020580000202DE9F0470B46144639
:100FE0004FF0000C00BF2C4A1268C2F302211D46CC
:100FF00026460A46C2F10709B9F1040F02D94FF09B
:10100000040901E0C2F10709C84602F10409B9F177
:10101000070F02D24FF0000901E0A2F103094F4689
:101020004FF0010909FA08F9A9F1010909EA0509CE
:1010300009FA07F94FF0010A0AFA07FAAAF1010AB8
:101040000AEA060A49EA0A09CC460146624600292C
:1010500004DB15072E0E114D6E5407E015072F0EF9
:101060000D4D0C3501F00F06361FAF5500BF014680
:1010700000290DDB00BF00BF01F01F050122AA40BF
:101080004D09AD0005F1E025C5F8002100BF00BF06
:1010900000BFBDE8F08700000CED00E000E400E0D8
:1010A00000B505480088C0F3C02010B100F006F874
:1010B00001E0FFF731FD00BD080000201348006883
:1010C00020F48040114908600846006820F4005070
:1010D00008600846006820F4006008600846006860
:1010E00020F4007008600846006820F48050086012
:1010F0000846006820F4806008600846006820F414
:101100000020086001200249087070470800002094
:101110002A0000203A480088C0F3402028B138480F
:101120000088C0F3C02000B1704735480088C0F384
:10113000402008B333480068F0B132480068401ED0
:101140003049086008460068B0B92D48006820F4AE
:1011500000502B4908600846006820F4806000F5C4
:10116000806008600846006820F400700860084647
:10117000006820F08070086021480088C0F3C0201B
:10118000E0B321480068B8B91E48006868B11C483F
:10119000006820F4005000F5005019490860194813
:1011A0000068401E174908600BE01548006820F4ED
:1011B00000501349086004E013480068401E1249BB
:1011C000086012480068C8B110480068401E0F4906
:1011D00008600846006888B90948006820F4804023
:1011E000074908600846006820F4805000F58050E8
:1011F00008600846006820F40060086000BF93E7BC
:10120000080000201000002018000020140000201A
:101210000A480068C0F3406070B108480068C0F335
:10122000404030B10548006820F4003003490860B0
:1012300002E0032002490870704700000800002007
:101240003C00002000B53C48006820F4000000F598
:1012500000003949086039480078401C3749087057
:1012600035480068C0F3C04088B935480078002888
:1012700005DD33480078401E3149087007E02E48EC
:10128000006820F4002000F500202B4908602A485F
:101290000088C0F3003020B92A480068401C294962
:1012A0000860FFF737FF2448007800F0010048B9D4
:1012B00021480088C0F3C02020B91F480088C0F32F
:1012C000402050B11C480068800DC1431A48006896
:1012D00061F396501849086015E01B480078401CDF
:1012E000194908700846007802280CDD1248006889
:1012F000800DC1431048006861F396500E490860A4
:101300000020114908700C48007800F0010090B1ED
:101310000A4800781E2803D0084800783C2801D1EC
:10132000FFF776FF054800783C2804D1FFF77CFDE5
:1013300000200249087000BD08000020280000209D
:101340002A0000200C0000203F0000200E4800680A
:1013500020F00100401C0C4908600846006820F09D
:10136000020008600846006820F0007000F100707C
:1013700008600846006820F4003000F5003008607E
:101380000020024908707047080000202800002053
:1013900010B5FFF761FC00200D490860FEF79BFFC8
:1013A000FEF792FFFEF76AFFFEF786FFFEF79AFF51
:1013B000FEF772FF002007490860074908600749E7
:1013C000086007490860074908600749087010BDB0
:1013D000080000200C000020100000201400002055
:1013E0001800002038000020290000200A4800686A
:1013F00020F4802000F58020074908600846006836
:1014000020F4004000F5004008600846006820F421
:10141000803008607047000008000020094800681C
:1014200020F48020074908600846006820F4004046
:1014300008600846006820F4803000F580300860BD
:10144000704700000800002010B52422232111203D
:10145000FFF7C2FD0F48C06820F00100401C0D4995
:10146000C8600846006820F0080008600846006868
:1014700020F0020008600121064800F015F84FF442
:10148000FA720121034800F007F80121014800F039
:1014900010F810BD00100040C1628262436923F061
:1014A00001035B1C43617047426861F300024260C4
:1014B0007047026861F3000202607047C1627047C2
:1014C0004AF6AA2001490860704700000030004039
:1014D00010B508480088C0F3C03050B10648006815
:1014E00000F0010080F00102012103481438FFF7E9
:1014F0004FFB10BD08000020140400481C15000814
:1015000000000020640000000801000880150008A9
:1015100064000020640600002401000800000000B0
:1015200000000000000000000000000000000000BB
:1015300000000000000000000000000000000000AB
:10154000000000000000000000000000000000009B
:10155000000000000000000000000000000000008B
:10156000000000000000000000000000000000007B
:10157000000000000000000000000000000000006B
:04000005080000CD22
:00000001FF
